{
  "contracts/nathancoin.sol": {
    "NathanCoin": {
      "abi": [
        {
          "inputs": [],
          "stateMutability": "nonpayable",
          "type": "constructor"
        },
        {
          "anonymous": false,
          "inputs": [
            {
              "indexed": true,
              "internalType": "address",
              "name": "owner",
              "type": "address"
            },
            {
              "indexed": true,
              "internalType": "address",
              "name": "spender",
              "type": "address"
            },
            {
              "indexed": false,
              "internalType": "uint256",
              "name": "value",
              "type": "uint256"
            }
          ],
          "name": "Approval",
          "type": "event"
        },
        {
          "anonymous": false,
          "inputs": [
            {
              "indexed": true,
              "internalType": "address",
              "name": "from",
              "type": "address"
            },
            {
              "indexed": true,
              "internalType": "address",
              "name": "to",
              "type": "address"
            },
            {
              "indexed": false,
              "internalType": "uint256",
              "name": "value",
              "type": "uint256"
            }
          ],
          "name": "Transfer",
          "type": "event"
        },
        {
          "inputs": [
            {
              "internalType": "address",
              "name": "",
              "type": "address"
            },
            {
              "internalType": "address",
              "name": "",
              "type": "address"
            }
          ],
          "name": "allowed",
          "outputs": [
            {
              "internalType": "uint256",
              "name": "",
              "type": "uint256"
            }
          ],
          "stateMutability": "view",
          "type": "function"
        },
        {
          "inputs": [
            {
              "internalType": "address",
              "name": "spender",
              "type": "address"
            },
            {
              "internalType": "uint256",
              "name": "value",
              "type": "uint256"
            }
          ],
          "name": "approve",
          "outputs": [
            {
              "internalType": "bool",
              "name": "",
              "type": "bool"
            }
          ],
          "stateMutability": "nonpayable",
          "type": "function"
        },
        {
          "inputs": [
            {
              "internalType": "address",
              "name": "account",
              "type": "address"
            }
          ],
          "name": "balanceOf",
          "outputs": [
            {
              "internalType": "uint256",
              "name": "",
              "type": "uint256"
            }
          ],
          "stateMutability": "view",
          "type": "function"
        },
        {
          "inputs": [
            {
              "internalType": "address",
              "name": "",
              "type": "address"
            }
          ],
          "name": "balances",
          "outputs": [
            {
              "internalType": "uint256",
              "name": "",
              "type": "uint256"
            }
          ],
          "stateMutability": "view",
          "type": "function"
        },
        {
          "inputs": [],
          "name": "decimals",
          "outputs": [
            {
              "internalType": "uint8",
              "name": "",
              "type": "uint8"
            }
          ],
          "stateMutability": "view",
          "type": "function"
        },
        {
          "inputs": [
            {
              "internalType": "address",
              "name": "owner_",
              "type": "address"
            },
            {
              "internalType": "address",
              "name": "spender",
              "type": "address"
            }
          ],
          "name": "getAllowance",
          "outputs": [
            {
              "internalType": "uint256",
              "name": "",
              "type": "uint256"
            }
          ],
          "stateMutability": "view",
          "type": "function"
        },
        {
          "inputs": [],
          "name": "name",
          "outputs": [
            {
              "internalType": "string",
              "name": "",
              "type": "string"
            }
          ],
          "stateMutability": "view",
          "type": "function"
        },
        {
          "inputs": [],
          "name": "owner",
          "outputs": [
            {
              "internalType": "address",
              "name": "",
              "type": "address"
            }
          ],
          "stateMutability": "view",
          "type": "function"
        },
        {
          "inputs": [],
          "name": "symbol",
          "outputs": [
            {
              "internalType": "string",
              "name": "",
              "type": "string"
            }
          ],
          "stateMutability": "view",
          "type": "function"
        },
        {
          "inputs": [],
          "name": "totalSupply",
          "outputs": [
            {
              "internalType": "uint256",
              "name": "",
              "type": "uint256"
            }
          ],
          "stateMutability": "view",
          "type": "function"
        },
        {
          "inputs": [
            {
              "internalType": "address",
              "name": "to",
              "type": "address"
            },
            {
              "internalType": "uint256",
              "name": "value",
              "type": "uint256"
            }
          ],
          "name": "transfer",
          "outputs": [
            {
              "internalType": "bool",
              "name": "",
              "type": "bool"
            }
          ],
          "stateMutability": "nonpayable",
          "type": "function"
        },
        {
          "inputs": [
            {
              "internalType": "address",
              "name": "from",
              "type": "address"
            },
            {
              "internalType": "address",
              "name": "to",
              "type": "address"
            },
            {
              "internalType": "uint256",
              "name": "value",
              "type": "uint256"
            }
          ],
          "name": "transferFrom",
          "outputs": [
            {
              "internalType": "bool",
              "name": "",
              "type": "bool"
            }
          ],
          "stateMutability": "nonpayable",
          "type": "function"
        }
      ],
      "evm": {
        "bytecode": {
          "linkReferences": {},
          "object": "6080604052620f42406000553480156200001857600080fd5b506200004d7f64a12e5c665541ebc950fb22015ad9a5c4decab6db22b9be2d30343703d1ba3860001b620001aa60201b60201c565b620000817f719bbf188dfed047182cbfa0a71f18869bf5a7caa19c5bc5f94309d1f51f778d60001b620001aa60201b60201c565b620000b57f485025135c6115d489f54e5f6f21dec4b1e6a055d506f4a6a075203e89332bc460001b620001aa60201b60201c565b600054600260003373ffffffffffffffffffffffffffffffffffffffff1673ffffffffffffffffffffffffffffffffffffffff168152602001908152602001600020819055506200012f7f021ef55118ed180b2bde541cfad9e8bb9784b548eb3915cbeca05b6c20ab93af60001b620001aa60201b60201c565b620001637f705c8ac9273e3fbb8dbb253b64d65c62b4a39dbbd36c51c20a0057802f92fde660001b620001aa60201b60201c565b33600160006101000a81548173ffffffffffffffffffffffffffffffffffffffff021916908373ffffffffffffffffffffffffffffffffffffffff160217905550620001ad565b50565b61166d80620001bd6000396000f3fe608060405234801561001057600080fd5b50600436106100b45760003560e01c8063313ce56711610071578063313ce567146101b55780635c658165146101d357806370a08231146102035780638da5cb5b1461023357806395d89b4114610251578063a9059cbb1461026f576100b4565b806306fdde03146100b9578063095ea7b3146100d75780630af4187d1461010757806318160ddd1461013757806323b872dd1461015557806327e235e314610185575b600080fd5b6100c161029f565b6040516100ce919061122a565b60405180910390f35b6100f160048036038101906100ec91906112e5565b6102d8565b6040516100fe9190611340565b60405180910390f35b610121600480360381019061011c919061135b565b6104fe565b60405161012e91906113aa565b60405180910390f35b61013f610609565b60405161014c91906113aa565b60405180910390f35b61016f600480360381019061016a91906113c5565b61060f565b60405161017c9190611340565b60405180910390f35b61019f600480360381019061019a9190611418565b610c45565b6040516101ac91906113aa565b60405180910390f35b6101bd610c5d565b6040516101ca9190611461565b60405180910390f35b6101ed60048036038101906101e8919061135b565b610c62565b6040516101fa91906113aa565b60405180910390f35b61021d60048036038101906102189190611418565b610c87565b60405161022a91906113aa565b60405180910390f35b61023b610d54565b604051610248919061148b565b60405180910390f35b610259610d7a565b604051610266919061122a565b60405180910390f35b610289600480360381019061028491906112e5565b610db3565b6040516102969190611340565b60405180910390f35b6040518060400160405280600b81526020017f4e617468616e20436f696e00000000000000000000000000000000000000000081525081565b60006103067fd0b30c46c39bae1630b17d8d441e41095ebf87ffa0c1c2e01ffea12411cff3f560001b61118e565b6103327f10359302cb909bf91acd3bcdb57fd945deb2dd6523d89627879cbda7ae66274f60001b61118e565b61035e7f168bce3bbddb24bf11b5f76dbeadddaa2a2f04c0d6db77529a4eccd493304aea60001b61118e565b81600360003373ffffffffffffffffffffffffffffffffffffffff1673ffffffffffffffffffffffffffffffffffffffff16815260200190815260200160002060008573ffffffffffffffffffffffffffffffffffffffff1673ffffffffffffffffffffffffffffffffffffffff1681526020019081526020016000208190555061040b7f0fa7326ffc43cba0f9c3fad72f5d6c0925c9ac506053938ba1c331cadd0d0c1a60001b61118e565b6104377f3f28cf3db5bf6e0911d0d74f95901420e35abcf8c4915b9f951061a5e24af7bd60001b61118e565b8273ffffffffffffffffffffffffffffffffffffffff163373ffffffffffffffffffffffffffffffffffffffff167f8c5be1e5ebec7d5bd14f71427d1e84f3dd0314c0f7b2291e5b200ac8c7c3b9258460405161049491906113aa565b60405180910390a36104c87fd563247322f17f1aa225932297a487179e88d05e1e0dfa59fbf24f65101a4eb060001b61118e565b6104f47f2bd56537fec80aa6c223b196abc3bd1cca6e54a7f3e0a29efc1afc1685fa58a160001b61118e565b6001905092915050565b600061052c7faa801acf766ad6adc93d38db62453751652208ea3d099ac5ce8c9b8b7e6ee83360001b61118e565b6105587f7253a052a334ef0f8a8d7f83ebb827809eedcab4b208d3d5458aa40220e6e29260001b61118e565b6105847fdc95f765c6d1ef95d36965450af5be712a4e11ae45d8ca7638abc68c02d6311a60001b61118e565b600360008473ffffffffffffffffffffffffffffffffffffffff1673ffffffffffffffffffffffffffffffffffffffff16815260200190815260200160002060008373ffffffffffffffffffffffffffffffffffffffff1673ffffffffffffffffffffffffffffffffffffffff16815260200190815260200160002054905092915050565b60005481565b600061063d7fa364d3ab7ae4d67f4fa2e24eec727f2a5de50644108a85cc1ca6c2568b51e92660001b61118e565b6106697f0126d266d51de596a96c5e1824bd2b444ee9897a88aae5410392fbbed4e811b060001b61118e565b6106957f1e5c83b63c82e9535a03534ace6b0f0ceb1d11b443f5ca8786ecfd1a9ca9694d60001b61118e565b6106c17f43206e60463910e048ec49cd015d4d5c11d8bb1d6caaaaf2b5e1062b3cb8435360001b61118e565b600260008573ffffffffffffffffffffffffffffffffffffffff1673ffffffffffffffffffffffffffffffffffffffff16815260200190815260200160002054821115610743576040517f08c379a000000000000000000000000000000000000000000000000000000000815260040161073a906114f2565b60405180910390fd5b61076f7f999f9df78a1a74759ad384eea683d735bb5aba4be6317708194e21884fb83b6260001b61118e565b61079b7ff1b4ea0e65a95124426bf2bcd3aee349130a17ca3e71a7ce49d23b34fe078bbe60001b61118e565b6107c77f1e40947827d29ad7f9719e3520d568d4b0b06d81e13e335bda69deb2bd6587c560001b61118e565b6107f37f7d76fbd7f00ac2c861cee6d13a453750f75370c7165653829ab6e6cf3429074160001b61118e565b600360008573ffffffffffffffffffffffffffffffffffffffff1673ffffffffffffffffffffffffffffffffffffffff16815260200190815260200160002060003373ffffffffffffffffffffffffffffffffffffffff1673ffffffffffffffffffffffffffffffffffffffff168152602001908152602001600020548211156108b2576040517f08c379a00000000000000000000000000000000000000000000000000000000081526004016108a99061155e565b60405180910390fd5b6108de7f36c30effef9eb08b74bafbc8aa181a3de365d70978944dd4ab5c09f94bc6ce3d60001b61118e565b61090a7f1683f80366780b0bd5774dd5624c659ec30088d30fcf78922ab0a46231fa12e660001b61118e565b6109367fd872d1b829407bef35412e1b48cd9d50b8d66e965101f09cc0dc4a903ebd112460001b61118e565b81600260008673ffffffffffffffffffffffffffffffffffffffff1673ffffffffffffffffffffffffffffffffffffffff168152602001908152602001600020600082825461098591906115ad565b925050819055506109b87f80cdad0ebaa2da362c4ed0657aef8780152b066e8407236b90b6c68433fe61d960001b61118e565b6109e47fe381e134eb773e9c73828038c0d48cb144c540e61a51bf0bc52420b220583fa160001b61118e565b81600360008673ffffffffffffffffffffffffffffffffffffffff1673ffffffffffffffffffffffffffffffffffffffff16815260200190815260200160002060003373ffffffffffffffffffffffffffffffffffffffff1673ffffffffffffffffffffffffffffffffffffffff1681526020019081526020016000206000828254610a7091906115ad565b92505081905550610aa37f3a41484d2835c60fdde7c0a56324c9def3afdb7081610bec348537d1dd49b89960001b61118e565b610acf7fe20422eb260d54303906542808c0d4a2b043693011bc191c2e52b098994b028960001b61118e565b81600260008573ffffffffffffffffffffffffffffffffffffffff1673ffffffffffffffffffffffffffffffffffffffff1681526020019081526020016000206000828254610b1e91906115e1565b92505081905550610b517fcb3ac5a78138e036f96bc325f4fbe5f5d176a85a563f26189c128a67dd9b616b60001b61118e565b610b7d7f44d99a6a322dcaae54f46300026fd44e58e797181f03c78a569780b82ab2e9a960001b61118e565b8273ffffffffffffffffffffffffffffffffffffffff168473ffffffffffffffffffffffffffffffffffffffff167fddf252ad1be2c89b69c2b068fc378daa952ba7f163c4a11628f55a4df523b3ef84604051610bda91906113aa565b60405180910390a3610c0e7f0c2b7f088465e82845cb559bfe9b076fdea17b3916048526e8850e257bf68e1760001b61118e565b610c3a7fce6a642879471c88413cffb6170916080b9dab87237eca0a63def7221534127660001b61118e565b600190509392505050565b60026020528060005260406000206000915090505481565b601281565b6003602052816000526040600020602052806000526040600020600091509150505481565b6000610cb57f1167df1adc7a5f598ada074e405a18dac056b62fb36ce3e44cf667c721aeb8d060001b61118e565b610ce17f72122bd72ea0e707ea2f1a8e59490bf46309b67d53f1f80ff441c6176b846f1460001b61118e565b610d0d7f103b5f411d3ce921d32191e6cbc317b06b7957ea4a8f643b5af9401249bbb21560001b61118e565b600260008373ffffffffffffffffffffffffffffffffffffffff1673ffffffffffffffffffffffffffffffffffffffff168152602001908152602001600020549050919050565b600160009054906101000a900473ffffffffffffffffffffffffffffffffffffffff1681565b6040518060400160405280600481526020017f4e4154430000000000000000000000000000000000000000000000000000000081525081565b6000610de17f55a579f23b4c04898078d6d4fb5fc6e9baa9e1b57479b5b8c9328c47a1de01d260001b61118e565b610e0d7ff6b9c96b1b433c919d7aaa127c46d781159448c89c75658275f07aee451264da60001b61118e565b610e397feb6224220d6a1f6f68bb7ef09bffaa5f2e5f0c922e9103ad00031e518a2fd80260001b61118e565b610e657f3e91ca06756faf45c74e7969b9ac26a02df67fd03516c75131724460ef3d111a60001b61118e565b600260003373ffffffffffffffffffffffffffffffffffffffff1673ffffffffffffffffffffffffffffffffffffffff16815260200190815260200160002054821115610ee7576040517f08c379a0000000000000000000000000000000000000000000000000000000008152600401610ede906114f2565b60405180910390fd5b610f137f60ead3bc38531c36ea2a5ae9e305a5c99f1af341081ebd8b105f6d03cef2cbe860001b61118e565b610f3f7fdcb90c4b7fa3c1755388850d9a8bcb3e2dd01b72c75e2b4d74e9ea067f47dc6360001b61118e565b610f6b7f49f9aff709effc54d3f3d542a2be8660d6ea9e30cf1bec6e0a8513ccb2dd641860001b61118e565b81600260003373ffffffffffffffffffffffffffffffffffffffff1673ffffffffffffffffffffffffffffffffffffffff1681526020019081526020016000206000828254610fba91906115ad565b92505081905550610fed7f1a27b14f8b81bac9b0a72704044717c246f778cc7b34392715a8e78f4cc5d33760001b61118e565b6110197f62dc8991c0ff936e44cb9442a44acb0b921182843123814a72f43fdcfcca39b360001b61118e565b81600260008573ffffffffffffffffffffffffffffffffffffffff1673ffffffffffffffffffffffffffffffffffffffff168152602001908152602001600020600082825461106891906115e1565b9250508190555061109b7fc2f9a9009b5ee3d98ac6103978fdc280a7db3c2b11837f336a0fb9e0e465afd060001b61118e565b6110c77f3b6d40baa2e18a0a40efd435706cfbeaad5670bbacf9b169d6ae3dec3db1bbe460001b61118e565b8273ffffffffffffffffffffffffffffffffffffffff163373ffffffffffffffffffffffffffffffffffffffff167fddf252ad1be2c89b69c2b068fc378daa952ba7f163c4a11628f55a4df523b3ef8460405161112491906113aa565b60405180910390a36111587f34279b25258ebc9783a5f76985d3e3129e0ec37a835ed449206151bff0f5703d60001b61118e565b6111847f256b207263b47e55726d6506040278adc252cd76064e1c69abf77bf3f83f471660001b61118e565b6001905092915050565b50565b600081519050919050565b600082825260208201905092915050565b60005b838110156111cb5780820151818401526020810190506111b0565b838111156111da576000848401525b50505050565b6000601f19601f8301169050919050565b60006111fc82611191565b611206818561119c565b93506112168185602086016111ad565b61121f816111e0565b840191505092915050565b6000602082019050818103600083015261124481846111f1565b905092915050565b600080fd5b600073ffffffffffffffffffffffffffffffffffffffff82169050919050565b600061127c82611251565b9050919050565b61128c81611271565b811461129757600080fd5b50565b6000813590506112a981611283565b92915050565b6000819050919050565b6112c2816112af565b81146112cd57600080fd5b50565b6000813590506112df816112b9565b92915050565b600080604083850312156112fc576112fb61124c565b5b600061130a8582860161129a565b925050602061131b858286016112d0565b9150509250929050565b60008115159050919050565b61133a81611325565b82525050565b60006020820190506113556000830184611331565b92915050565b600080604083850312156113725761137161124c565b5b60006113808582860161129a565b92505060206113918582860161129a565b9150509250929050565b6113a4816112af565b82525050565b60006020820190506113bf600083018461139b565b92915050565b6000806000606084860312156113de576113dd61124c565b5b60006113ec8682870161129a565b93505060206113fd8682870161129a565b925050604061140e868287016112d0565b9150509250925092565b60006020828403121561142e5761142d61124c565b5b600061143c8482850161129a565b91505092915050565b600060ff82169050919050565b61145b81611445565b82525050565b60006020820190506114766000830184611452565b92915050565b61148581611271565b82525050565b60006020820190506114a0600083018461147c565b92915050565b7f496e73756666696369656e742066756e64730000000000000000000000000000600082015250565b60006114dc60128361119c565b91506114e7826114a6565b602082019050919050565b6000602082019050818103600083015261150b816114cf565b9050919050565b7f496e73756666696369656e7420616c6c6f77616e636500000000000000000000600082015250565b600061154860168361119c565b915061155382611512565b602082019050919050565b600060208201905081810360008301526115778161153b565b9050919050565b7f4e487b7100000000000000000000000000000000000000000000000000000000600052601160045260246000fd5b60006115b8826112af565b91506115c3836112af565b9250828210156115d6576115d561157e565b5b828203905092915050565b60006115ec826112af565b91506115f7836112af565b9250827fffffffffffffffffffffffffffffffffffffffffffffffffffffffffffffffff0382111561162c5761162b61157e565b5b82820190509291505056fea2646970667358221220b62f421e5aedd501db119a6c20e6393ac4e604e35bef6b4d5a2a7d11f08e8a2164736f6c63430008090033",
          "opcodes": "PUSH1 0x80 PUSH1 0x40 MSTORE PUSH3 0xF4240 PUSH1 0x0 SSTORE CALLVALUE DUP1 ISZERO PUSH3 0x18 JUMPI PUSH1 0x0 DUP1 REVERT JUMPDEST POP PUSH3 0x4D PUSH32 0x64A12E5C665541EBC950FB22015AD9A5C4DECAB6DB22B9BE2D30343703D1BA38 PUSH1 0x0 SHL PUSH3 0x1AA PUSH1 0x20 SHL PUSH1 0x20 SHR JUMP JUMPDEST PUSH3 0x81 PUSH32 0x719BBF188DFED047182CBFA0A71F18869BF5A7CAA19C5BC5F94309D1F51F778D PUSH1 0x0 SHL PUSH3 0x1AA PUSH1 0x20 SHL PUSH1 0x20 SHR JUMP JUMPDEST PUSH3 0xB5 PUSH32 0x485025135C6115D489F54E5F6F21DEC4B1E6A055D506F4A6A075203E89332BC4 PUSH1 0x0 SHL PUSH3 0x1AA PUSH1 0x20 SHL PUSH1 0x20 SHR JUMP JUMPDEST PUSH1 0x0 SLOAD PUSH1 0x2 PUSH1 0x0 CALLER PUSH20 0xFFFFFFFFFFFFFFFFFFFFFFFFFFFFFFFFFFFFFFFF AND PUSH20 0xFFFFFFFFFFFFFFFFFFFFFFFFFFFFFFFFFFFFFFFF AND DUP2 MSTORE PUSH1 0x20 ADD SWAP1 DUP2 MSTORE PUSH1 0x20 ADD PUSH1 0x0 KECCAK256 DUP2 SWAP1 SSTORE POP PUSH3 0x12F PUSH32 0x21EF55118ED180B2BDE541CFAD9E8BB9784B548EB3915CBECA05B6C20AB93AF PUSH1 0x0 SHL PUSH3 0x1AA PUSH1 0x20 SHL PUSH1 0x20 SHR JUMP JUMPDEST PUSH3 0x163 PUSH32 0x705C8AC9273E3FBB8DBB253B64D65C62B4A39DBBD36C51C20A0057802F92FDE6 PUSH1 0x0 SHL PUSH3 0x1AA PUSH1 0x20 SHL PUSH1 0x20 SHR JUMP JUMPDEST CALLER PUSH1 0x1 PUSH1 0x0 PUSH2 0x100 EXP DUP2 SLOAD DUP2 PUSH20 0xFFFFFFFFFFFFFFFFFFFFFFFFFFFFFFFFFFFFFFFF MUL NOT AND SWAP1 DUP4 PUSH20 0xFFFFFFFFFFFFFFFFFFFFFFFFFFFFFFFFFFFFFFFF AND MUL OR SWAP1 SSTORE POP PUSH3 0x1AD JUMP JUMPDEST POP JUMP JUMPDEST PUSH2 0x166D DUP1 PUSH3 0x1BD PUSH1 0x0 CODECOPY PUSH1 0x0 RETURN INVALID PUSH1 0x80 PUSH1 0x40 MSTORE CALLVALUE DUP1 ISZERO PUSH2 0x10 JUMPI PUSH1 0x0 DUP1 REVERT JUMPDEST POP PUSH1 0x4 CALLDATASIZE LT PUSH2 0xB4 JUMPI PUSH1 0x0 CALLDATALOAD PUSH1 0xE0 SHR DUP1 PUSH4 0x313CE567 GT PUSH2 0x71 JUMPI DUP1 PUSH4 0x313CE567 EQ PUSH2 0x1B5 JUMPI DUP1 PUSH4 0x5C658165 EQ PUSH2 0x1D3 JUMPI DUP1 PUSH4 0x70A08231 EQ PUSH2 0x203 JUMPI DUP1 PUSH4 0x8DA5CB5B EQ PUSH2 0x233 JUMPI DUP1 PUSH4 0x95D89B41 EQ PUSH2 0x251 JUMPI DUP1 PUSH4 0xA9059CBB EQ PUSH2 0x26F JUMPI PUSH2 0xB4 JUMP JUMPDEST DUP1 PUSH4 0x6FDDE03 EQ PUSH2 0xB9 JUMPI DUP1 PUSH4 0x95EA7B3 EQ PUSH2 0xD7 JUMPI DUP1 PUSH4 0xAF4187D EQ PUSH2 0x107 JUMPI DUP1 PUSH4 0x18160DDD EQ PUSH2 0x137 JUMPI DUP1 PUSH4 0x23B872DD EQ PUSH2 0x155 JUMPI DUP1 PUSH4 0x27E235E3 EQ PUSH2 0x185 JUMPI JUMPDEST PUSH1 0x0 DUP1 REVERT JUMPDEST PUSH2 0xC1 PUSH2 0x29F JUMP JUMPDEST PUSH1 0x40 MLOAD PUSH2 0xCE SWAP2 SWAP1 PUSH2 0x122A JUMP JUMPDEST PUSH1 0x40 MLOAD DUP1 SWAP2 SUB SWAP1 RETURN JUMPDEST PUSH2 0xF1 PUSH1 0x4 DUP1 CALLDATASIZE SUB DUP2 ADD SWAP1 PUSH2 0xEC SWAP2 SWAP1 PUSH2 0x12E5 JUMP JUMPDEST PUSH2 0x2D8 JUMP JUMPDEST PUSH1 0x40 MLOAD PUSH2 0xFE SWAP2 SWAP1 PUSH2 0x1340 JUMP JUMPDEST PUSH1 0x40 MLOAD DUP1 SWAP2 SUB SWAP1 RETURN JUMPDEST PUSH2 0x121 PUSH1 0x4 DUP1 CALLDATASIZE SUB DUP2 ADD SWAP1 PUSH2 0x11C SWAP2 SWAP1 PUSH2 0x135B JUMP JUMPDEST PUSH2 0x4FE JUMP JUMPDEST PUSH1 0x40 MLOAD PUSH2 0x12E SWAP2 SWAP1 PUSH2 0x13AA JUMP JUMPDEST PUSH1 0x40 MLOAD DUP1 SWAP2 SUB SWAP1 RETURN JUMPDEST PUSH2 0x13F PUSH2 0x609 JUMP JUMPDEST PUSH1 0x40 MLOAD PUSH2 0x14C SWAP2 SWAP1 PUSH2 0x13AA JUMP JUMPDEST PUSH1 0x40 MLOAD DUP1 SWAP2 SUB SWAP1 RETURN JUMPDEST PUSH2 0x16F PUSH1 0x4 DUP1 CALLDATASIZE SUB DUP2 ADD SWAP1 PUSH2 0x16A SWAP2 SWAP1 PUSH2 0x13C5 JUMP JUMPDEST PUSH2 0x60F JUMP JUMPDEST PUSH1 0x40 MLOAD PUSH2 0x17C SWAP2 SWAP1 PUSH2 0x1340 JUMP JUMPDEST PUSH1 0x40 MLOAD DUP1 SWAP2 SUB SWAP1 RETURN JUMPDEST PUSH2 0x19F PUSH1 0x4 DUP1 CALLDATASIZE SUB DUP2 ADD SWAP1 PUSH2 0x19A SWAP2 SWAP1 PUSH2 0x1418 JUMP JUMPDEST PUSH2 0xC45 JUMP JUMPDEST PUSH1 0x40 MLOAD PUSH2 0x1AC SWAP2 SWAP1 PUSH2 0x13AA JUMP JUMPDEST PUSH1 0x40 MLOAD DUP1 SWAP2 SUB SWAP1 RETURN JUMPDEST PUSH2 0x1BD PUSH2 0xC5D JUMP JUMPDEST PUSH1 0x40 MLOAD PUSH2 0x1CA SWAP2 SWAP1 PUSH2 0x1461 JUMP JUMPDEST PUSH1 0x40 MLOAD DUP1 SWAP2 SUB SWAP1 RETURN JUMPDEST PUSH2 0x1ED PUSH1 0x4 DUP1 CALLDATASIZE SUB DUP2 ADD SWAP1 PUSH2 0x1E8 SWAP2 SWAP1 PUSH2 0x135B JUMP JUMPDEST PUSH2 0xC62 JUMP JUMPDEST PUSH1 0x40 MLOAD PUSH2 0x1FA SWAP2 SWAP1 PUSH2 0x13AA JUMP JUMPDEST PUSH1 0x40 MLOAD DUP1 SWAP2 SUB SWAP1 RETURN JUMPDEST PUSH2 0x21D PUSH1 0x4 DUP1 CALLDATASIZE SUB DUP2 ADD SWAP1 PUSH2 0x218 SWAP2 SWAP1 PUSH2 0x1418 JUMP JUMPDEST PUSH2 0xC87 JUMP JUMPDEST PUSH1 0x40 MLOAD PUSH2 0x22A SWAP2 SWAP1 PUSH2 0x13AA JUMP JUMPDEST PUSH1 0x40 MLOAD DUP1 SWAP2 SUB SWAP1 RETURN JUMPDEST PUSH2 0x23B PUSH2 0xD54 JUMP JUMPDEST PUSH1 0x40 MLOAD PUSH2 0x248 SWAP2 SWAP1 PUSH2 0x148B JUMP JUMPDEST PUSH1 0x40 MLOAD DUP1 SWAP2 SUB SWAP1 RETURN JUMPDEST PUSH2 0x259 PUSH2 0xD7A JUMP JUMPDEST PUSH1 0x40 MLOAD PUSH2 0x266 SWAP2 SWAP1 PUSH2 0x122A JUMP JUMPDEST PUSH1 0x40 MLOAD DUP1 SWAP2 SUB SWAP1 RETURN JUMPDEST PUSH2 0x289 PUSH1 0x4 DUP1 CALLDATASIZE SUB DUP2 ADD SWAP1 PUSH2 0x284 SWAP2 SWAP1 PUSH2 0x12E5 JUMP JUMPDEST PUSH2 0xDB3 JUMP JUMPDEST PUSH1 0x40 MLOAD PUSH2 0x296 SWAP2 SWAP1 PUSH2 0x1340 JUMP JUMPDEST PUSH1 0x40 MLOAD DUP1 SWAP2 SUB SWAP1 RETURN JUMPDEST PUSH1 0x40 MLOAD DUP1 PUSH1 0x40 ADD PUSH1 0x40 MSTORE DUP1 PUSH1 0xB DUP2 MSTORE PUSH1 0x20 ADD PUSH32 0x4E617468616E20436F696E000000000000000000000000000000000000000000 DUP2 MSTORE POP DUP2 JUMP JUMPDEST PUSH1 0x0 PUSH2 0x306 PUSH32 0xD0B30C46C39BAE1630B17D8D441E41095EBF87FFA0C1C2E01FFEA12411CFF3F5 PUSH1 0x0 SHL PUSH2 0x118E JUMP JUMPDEST PUSH2 0x332 PUSH32 0x10359302CB909BF91ACD3BCDB57FD945DEB2DD6523D89627879CBDA7AE66274F PUSH1 0x0 SHL PUSH2 0x118E JUMP JUMPDEST PUSH2 0x35E PUSH32 0x168BCE3BBDDB24BF11B5F76DBEADDDAA2A2F04C0D6DB77529A4ECCD493304AEA PUSH1 0x0 SHL PUSH2 0x118E JUMP JUMPDEST DUP2 PUSH1 0x3 PUSH1 0x0 CALLER PUSH20 0xFFFFFFFFFFFFFFFFFFFFFFFFFFFFFFFFFFFFFFFF AND PUSH20 0xFFFFFFFFFFFFFFFFFFFFFFFFFFFFFFFFFFFFFFFF AND DUP2 MSTORE PUSH1 0x20 ADD SWAP1 DUP2 MSTORE PUSH1 0x20 ADD PUSH1 0x0 KECCAK256 PUSH1 0x0 DUP6 PUSH20 0xFFFFFFFFFFFFFFFFFFFFFFFFFFFFFFFFFFFFFFFF AND PUSH20 0xFFFFFFFFFFFFFFFFFFFFFFFFFFFFFFFFFFFFFFFF AND DUP2 MSTORE PUSH1 0x20 ADD SWAP1 DUP2 MSTORE PUSH1 0x20 ADD PUSH1 0x0 KECCAK256 DUP2 SWAP1 SSTORE POP PUSH2 0x40B PUSH32 0xFA7326FFC43CBA0F9C3FAD72F5D6C0925C9AC506053938BA1C331CADD0D0C1A PUSH1 0x0 SHL PUSH2 0x118E JUMP JUMPDEST PUSH2 0x437 PUSH32 0x3F28CF3DB5BF6E0911D0D74F95901420E35ABCF8C4915B9F951061A5E24AF7BD PUSH1 0x0 SHL PUSH2 0x118E JUMP JUMPDEST DUP3 PUSH20 0xFFFFFFFFFFFFFFFFFFFFFFFFFFFFFFFFFFFFFFFF AND CALLER PUSH20 0xFFFFFFFFFFFFFFFFFFFFFFFFFFFFFFFFFFFFFFFF AND PUSH32 0x8C5BE1E5EBEC7D5BD14F71427D1E84F3DD0314C0F7B2291E5B200AC8C7C3B925 DUP5 PUSH1 0x40 MLOAD PUSH2 0x494 SWAP2 SWAP1 PUSH2 0x13AA JUMP JUMPDEST PUSH1 0x40 MLOAD DUP1 SWAP2 SUB SWAP1 LOG3 PUSH2 0x4C8 PUSH32 0xD563247322F17F1AA225932297A487179E88D05E1E0DFA59FBF24F65101A4EB0 PUSH1 0x0 SHL PUSH2 0x118E JUMP JUMPDEST PUSH2 0x4F4 PUSH32 0x2BD56537FEC80AA6C223B196ABC3BD1CCA6E54A7F3E0A29EFC1AFC1685FA58A1 PUSH1 0x0 SHL PUSH2 0x118E JUMP JUMPDEST PUSH1 0x1 SWAP1 POP SWAP3 SWAP2 POP POP JUMP JUMPDEST PUSH1 0x0 PUSH2 0x52C PUSH32 0xAA801ACF766AD6ADC93D38DB62453751652208EA3D099AC5CE8C9B8B7E6EE833 PUSH1 0x0 SHL PUSH2 0x118E JUMP JUMPDEST PUSH2 0x558 PUSH32 0x7253A052A334EF0F8A8D7F83EBB827809EEDCAB4B208D3D5458AA40220E6E292 PUSH1 0x0 SHL PUSH2 0x118E JUMP JUMPDEST PUSH2 0x584 PUSH32 0xDC95F765C6D1EF95D36965450AF5BE712A4E11AE45D8CA7638ABC68C02D6311A PUSH1 0x0 SHL PUSH2 0x118E JUMP JUMPDEST PUSH1 0x3 PUSH1 0x0 DUP5 PUSH20 0xFFFFFFFFFFFFFFFFFFFFFFFFFFFFFFFFFFFFFFFF AND PUSH20 0xFFFFFFFFFFFFFFFFFFFFFFFFFFFFFFFFFFFFFFFF AND DUP2 MSTORE PUSH1 0x20 ADD SWAP1 DUP2 MSTORE PUSH1 0x20 ADD PUSH1 0x0 KECCAK256 PUSH1 0x0 DUP4 PUSH20 0xFFFFFFFFFFFFFFFFFFFFFFFFFFFFFFFFFFFFFFFF AND PUSH20 0xFFFFFFFFFFFFFFFFFFFFFFFFFFFFFFFFFFFFFFFF AND DUP2 MSTORE PUSH1 0x20 ADD SWAP1 DUP2 MSTORE PUSH1 0x20 ADD PUSH1 0x0 KECCAK256 SLOAD SWAP1 POP SWAP3 SWAP2 POP POP JUMP JUMPDEST PUSH1 0x0 SLOAD DUP2 JUMP JUMPDEST PUSH1 0x0 PUSH2 0x63D PUSH32 0xA364D3AB7AE4D67F4FA2E24EEC727F2A5DE50644108A85CC1CA6C2568B51E926 PUSH1 0x0 SHL PUSH2 0x118E JUMP JUMPDEST PUSH2 0x669 PUSH32 0x126D266D51DE596A96C5E1824BD2B444EE9897A88AAE5410392FBBED4E811B0 PUSH1 0x0 SHL PUSH2 0x118E JUMP JUMPDEST PUSH2 0x695 PUSH32 0x1E5C83B63C82E9535A03534ACE6B0F0CEB1D11B443F5CA8786ECFD1A9CA9694D PUSH1 0x0 SHL PUSH2 0x118E JUMP JUMPDEST PUSH2 0x6C1 PUSH32 0x43206E60463910E048EC49CD015D4D5C11D8BB1D6CAAAAF2B5E1062B3CB84353 PUSH1 0x0 SHL PUSH2 0x118E JUMP JUMPDEST PUSH1 0x2 PUSH1 0x0 DUP6 PUSH20 0xFFFFFFFFFFFFFFFFFFFFFFFFFFFFFFFFFFFFFFFF AND PUSH20 0xFFFFFFFFFFFFFFFFFFFFFFFFFFFFFFFFFFFFFFFF AND DUP2 MSTORE PUSH1 0x20 ADD SWAP1 DUP2 MSTORE PUSH1 0x20 ADD PUSH1 0x0 KECCAK256 SLOAD DUP3 GT ISZERO PUSH2 0x743 JUMPI PUSH1 0x40 MLOAD PUSH32 0x8C379A000000000000000000000000000000000000000000000000000000000 DUP2 MSTORE PUSH1 0x4 ADD PUSH2 0x73A SWAP1 PUSH2 0x14F2 JUMP JUMPDEST PUSH1 0x40 MLOAD DUP1 SWAP2 SUB SWAP1 REVERT JUMPDEST PUSH2 0x76F PUSH32 0x999F9DF78A1A74759AD384EEA683D735BB5ABA4BE6317708194E21884FB83B62 PUSH1 0x0 SHL PUSH2 0x118E JUMP JUMPDEST PUSH2 0x79B PUSH32 0xF1B4EA0E65A95124426BF2BCD3AEE349130A17CA3E71A7CE49D23B34FE078BBE PUSH1 0x0 SHL PUSH2 0x118E JUMP JUMPDEST PUSH2 0x7C7 PUSH32 0x1E40947827D29AD7F9719E3520D568D4B0B06D81E13E335BDA69DEB2BD6587C5 PUSH1 0x0 SHL PUSH2 0x118E JUMP JUMPDEST PUSH2 0x7F3 PUSH32 0x7D76FBD7F00AC2C861CEE6D13A453750F75370C7165653829AB6E6CF34290741 PUSH1 0x0 SHL PUSH2 0x118E JUMP JUMPDEST PUSH1 0x3 PUSH1 0x0 DUP6 PUSH20 0xFFFFFFFFFFFFFFFFFFFFFFFFFFFFFFFFFFFFFFFF AND PUSH20 0xFFFFFFFFFFFFFFFFFFFFFFFFFFFFFFFFFFFFFFFF AND DUP2 MSTORE PUSH1 0x20 ADD SWAP1 DUP2 MSTORE PUSH1 0x20 ADD PUSH1 0x0 KECCAK256 PUSH1 0x0 CALLER PUSH20 0xFFFFFFFFFFFFFFFFFFFFFFFFFFFFFFFFFFFFFFFF AND PUSH20 0xFFFFFFFFFFFFFFFFFFFFFFFFFFFFFFFFFFFFFFFF AND DUP2 MSTORE PUSH1 0x20 ADD SWAP1 DUP2 MSTORE PUSH1 0x20 ADD PUSH1 0x0 KECCAK256 SLOAD DUP3 GT ISZERO PUSH2 0x8B2 JUMPI PUSH1 0x40 MLOAD PUSH32 0x8C379A000000000000000000000000000000000000000000000000000000000 DUP2 MSTORE PUSH1 0x4 ADD PUSH2 0x8A9 SWAP1 PUSH2 0x155E JUMP JUMPDEST PUSH1 0x40 MLOAD DUP1 SWAP2 SUB SWAP1 REVERT JUMPDEST PUSH2 0x8DE PUSH32 0x36C30EFFEF9EB08B74BAFBC8AA181A3DE365D70978944DD4AB5C09F94BC6CE3D PUSH1 0x0 SHL PUSH2 0x118E JUMP JUMPDEST PUSH2 0x90A PUSH32 0x1683F80366780B0BD5774DD5624C659EC30088D30FCF78922AB0A46231FA12E6 PUSH1 0x0 SHL PUSH2 0x118E JUMP JUMPDEST PUSH2 0x936 PUSH32 0xD872D1B829407BEF35412E1B48CD9D50B8D66E965101F09CC0DC4A903EBD1124 PUSH1 0x0 SHL PUSH2 0x118E JUMP JUMPDEST DUP2 PUSH1 0x2 PUSH1 0x0 DUP7 PUSH20 0xFFFFFFFFFFFFFFFFFFFFFFFFFFFFFFFFFFFFFFFF AND PUSH20 0xFFFFFFFFFFFFFFFFFFFFFFFFFFFFFFFFFFFFFFFF AND DUP2 MSTORE PUSH1 0x20 ADD SWAP1 DUP2 MSTORE PUSH1 0x20 ADD PUSH1 0x0 KECCAK256 PUSH1 0x0 DUP3 DUP3 SLOAD PUSH2 0x985 SWAP2 SWAP1 PUSH2 0x15AD JUMP JUMPDEST SWAP3 POP POP DUP2 SWAP1 SSTORE POP PUSH2 0x9B8 PUSH32 0x80CDAD0EBAA2DA362C4ED0657AEF8780152B066E8407236B90B6C68433FE61D9 PUSH1 0x0 SHL PUSH2 0x118E JUMP JUMPDEST PUSH2 0x9E4 PUSH32 0xE381E134EB773E9C73828038C0D48CB144C540E61A51BF0BC52420B220583FA1 PUSH1 0x0 SHL PUSH2 0x118E JUMP JUMPDEST DUP2 PUSH1 0x3 PUSH1 0x0 DUP7 PUSH20 0xFFFFFFFFFFFFFFFFFFFFFFFFFFFFFFFFFFFFFFFF AND PUSH20 0xFFFFFFFFFFFFFFFFFFFFFFFFFFFFFFFFFFFFFFFF AND DUP2 MSTORE PUSH1 0x20 ADD SWAP1 DUP2 MSTORE PUSH1 0x20 ADD PUSH1 0x0 KECCAK256 PUSH1 0x0 CALLER PUSH20 0xFFFFFFFFFFFFFFFFFFFFFFFFFFFFFFFFFFFFFFFF AND PUSH20 0xFFFFFFFFFFFFFFFFFFFFFFFFFFFFFFFFFFFFFFFF AND DUP2 MSTORE PUSH1 0x20 ADD SWAP1 DUP2 MSTORE PUSH1 0x20 ADD PUSH1 0x0 KECCAK256 PUSH1 0x0 DUP3 DUP3 SLOAD PUSH2 0xA70 SWAP2 SWAP1 PUSH2 0x15AD JUMP JUMPDEST SWAP3 POP POP DUP2 SWAP1 SSTORE POP PUSH2 0xAA3 PUSH32 0x3A41484D2835C60FDDE7C0A56324C9DEF3AFDB7081610BEC348537D1DD49B899 PUSH1 0x0 SHL PUSH2 0x118E JUMP JUMPDEST PUSH2 0xACF PUSH32 0xE20422EB260D54303906542808C0D4A2B043693011BC191C2E52B098994B0289 PUSH1 0x0 SHL PUSH2 0x118E JUMP JUMPDEST DUP2 PUSH1 0x2 PUSH1 0x0 DUP6 PUSH20 0xFFFFFFFFFFFFFFFFFFFFFFFFFFFFFFFFFFFFFFFF AND PUSH20 0xFFFFFFFFFFFFFFFFFFFFFFFFFFFFFFFFFFFFFFFF AND DUP2 MSTORE PUSH1 0x20 ADD SWAP1 DUP2 MSTORE PUSH1 0x20 ADD PUSH1 0x0 KECCAK256 PUSH1 0x0 DUP3 DUP3 SLOAD PUSH2 0xB1E SWAP2 SWAP1 PUSH2 0x15E1 JUMP JUMPDEST SWAP3 POP POP DUP2 SWAP1 SSTORE POP PUSH2 0xB51 PUSH32 0xCB3AC5A78138E036F96BC325F4FBE5F5D176A85A563F26189C128A67DD9B616B PUSH1 0x0 SHL PUSH2 0x118E JUMP JUMPDEST PUSH2 0xB7D PUSH32 0x44D99A6A322DCAAE54F46300026FD44E58E797181F03C78A569780B82AB2E9A9 PUSH1 0x0 SHL PUSH2 0x118E JUMP JUMPDEST DUP3 PUSH20 0xFFFFFFFFFFFFFFFFFFFFFFFFFFFFFFFFFFFFFFFF AND DUP5 PUSH20 0xFFFFFFFFFFFFFFFFFFFFFFFFFFFFFFFFFFFFFFFF AND PUSH32 0xDDF252AD1BE2C89B69C2B068FC378DAA952BA7F163C4A11628F55A4DF523B3EF DUP5 PUSH1 0x40 MLOAD PUSH2 0xBDA SWAP2 SWAP1 PUSH2 0x13AA JUMP JUMPDEST PUSH1 0x40 MLOAD DUP1 SWAP2 SUB SWAP1 LOG3 PUSH2 0xC0E PUSH32 0xC2B7F088465E82845CB559BFE9B076FDEA17B3916048526E8850E257BF68E17 PUSH1 0x0 SHL PUSH2 0x118E JUMP JUMPDEST PUSH2 0xC3A PUSH32 0xCE6A642879471C88413CFFB6170916080B9DAB87237ECA0A63DEF72215341276 PUSH1 0x0 SHL PUSH2 0x118E JUMP JUMPDEST PUSH1 0x1 SWAP1 POP SWAP4 SWAP3 POP POP POP JUMP JUMPDEST PUSH1 0x2 PUSH1 0x20 MSTORE DUP1 PUSH1 0x0 MSTORE PUSH1 0x40 PUSH1 0x0 KECCAK256 PUSH1 0x0 SWAP2 POP SWAP1 POP SLOAD DUP2 JUMP JUMPDEST PUSH1 0x12 DUP2 JUMP JUMPDEST PUSH1 0x3 PUSH1 0x20 MSTORE DUP2 PUSH1 0x0 MSTORE PUSH1 0x40 PUSH1 0x0 KECCAK256 PUSH1 0x20 MSTORE DUP1 PUSH1 0x0 MSTORE PUSH1 0x40 PUSH1 0x0 KECCAK256 PUSH1 0x0 SWAP2 POP SWAP2 POP POP SLOAD DUP2 JUMP JUMPDEST PUSH1 0x0 PUSH2 0xCB5 PUSH32 0x1167DF1ADC7A5F598ADA074E405A18DAC056B62FB36CE3E44CF667C721AEB8D0 PUSH1 0x0 SHL PUSH2 0x118E JUMP JUMPDEST PUSH2 0xCE1 PUSH32 0x72122BD72EA0E707EA2F1A8E59490BF46309B67D53F1F80FF441C6176B846F14 PUSH1 0x0 SHL PUSH2 0x118E JUMP JUMPDEST PUSH2 0xD0D PUSH32 0x103B5F411D3CE921D32191E6CBC317B06B7957EA4A8F643B5AF9401249BBB215 PUSH1 0x0 SHL PUSH2 0x118E JUMP JUMPDEST PUSH1 0x2 PUSH1 0x0 DUP4 PUSH20 0xFFFFFFFFFFFFFFFFFFFFFFFFFFFFFFFFFFFFFFFF AND PUSH20 0xFFFFFFFFFFFFFFFFFFFFFFFFFFFFFFFFFFFFFFFF AND DUP2 MSTORE PUSH1 0x20 ADD SWAP1 DUP2 MSTORE PUSH1 0x20 ADD PUSH1 0x0 KECCAK256 SLOAD SWAP1 POP SWAP2 SWAP1 POP JUMP JUMPDEST PUSH1 0x1 PUSH1 0x0 SWAP1 SLOAD SWAP1 PUSH2 0x100 EXP SWAP1 DIV PUSH20 0xFFFFFFFFFFFFFFFFFFFFFFFFFFFFFFFFFFFFFFFF AND DUP2 JUMP JUMPDEST PUSH1 0x40 MLOAD DUP1 PUSH1 0x40 ADD PUSH1 0x40 MSTORE DUP1 PUSH1 0x4 DUP2 MSTORE PUSH1 0x20 ADD PUSH32 0x4E41544300000000000000000000000000000000000000000000000000000000 DUP2 MSTORE POP DUP2 JUMP JUMPDEST PUSH1 0x0 PUSH2 0xDE1 PUSH32 0x55A579F23B4C04898078D6D4FB5FC6E9BAA9E1B57479B5B8C9328C47A1DE01D2 PUSH1 0x0 SHL PUSH2 0x118E JUMP JUMPDEST PUSH2 0xE0D PUSH32 0xF6B9C96B1B433C919D7AAA127C46D781159448C89C75658275F07AEE451264DA PUSH1 0x0 SHL PUSH2 0x118E JUMP JUMPDEST PUSH2 0xE39 PUSH32 0xEB6224220D6A1F6F68BB7EF09BFFAA5F2E5F0C922E9103AD00031E518A2FD802 PUSH1 0x0 SHL PUSH2 0x118E JUMP JUMPDEST PUSH2 0xE65 PUSH32 0x3E91CA06756FAF45C74E7969B9AC26A02DF67FD03516C75131724460EF3D111A PUSH1 0x0 SHL PUSH2 0x118E JUMP JUMPDEST PUSH1 0x2 PUSH1 0x0 CALLER PUSH20 0xFFFFFFFFFFFFFFFFFFFFFFFFFFFFFFFFFFFFFFFF AND PUSH20 0xFFFFFFFFFFFFFFFFFFFFFFFFFFFFFFFFFFFFFFFF AND DUP2 MSTORE PUSH1 0x20 ADD SWAP1 DUP2 MSTORE PUSH1 0x20 ADD PUSH1 0x0 KECCAK256 SLOAD DUP3 GT ISZERO PUSH2 0xEE7 JUMPI PUSH1 0x40 MLOAD PUSH32 0x8C379A000000000000000000000000000000000000000000000000000000000 DUP2 MSTORE PUSH1 0x4 ADD PUSH2 0xEDE SWAP1 PUSH2 0x14F2 JUMP JUMPDEST PUSH1 0x40 MLOAD DUP1 SWAP2 SUB SWAP1 REVERT JUMPDEST PUSH2 0xF13 PUSH32 0x60EAD3BC38531C36EA2A5AE9E305A5C99F1AF341081EBD8B105F6D03CEF2CBE8 PUSH1 0x0 SHL PUSH2 0x118E JUMP JUMPDEST PUSH2 0xF3F PUSH32 0xDCB90C4B7FA3C1755388850D9A8BCB3E2DD01B72C75E2B4D74E9EA067F47DC63 PUSH1 0x0 SHL PUSH2 0x118E JUMP JUMPDEST PUSH2 0xF6B PUSH32 0x49F9AFF709EFFC54D3F3D542A2BE8660D6EA9E30CF1BEC6E0A8513CCB2DD6418 PUSH1 0x0 SHL PUSH2 0x118E JUMP JUMPDEST DUP2 PUSH1 0x2 PUSH1 0x0 CALLER PUSH20 0xFFFFFFFFFFFFFFFFFFFFFFFFFFFFFFFFFFFFFFFF AND PUSH20 0xFFFFFFFFFFFFFFFFFFFFFFFFFFFFFFFFFFFFFFFF AND DUP2 MSTORE PUSH1 0x20 ADD SWAP1 DUP2 MSTORE PUSH1 0x20 ADD PUSH1 0x0 KECCAK256 PUSH1 0x0 DUP3 DUP3 SLOAD PUSH2 0xFBA SWAP2 SWAP1 PUSH2 0x15AD JUMP JUMPDEST SWAP3 POP POP DUP2 SWAP1 SSTORE POP PUSH2 0xFED PUSH32 0x1A27B14F8B81BAC9B0A72704044717C246F778CC7B34392715A8E78F4CC5D337 PUSH1 0x0 SHL PUSH2 0x118E JUMP JUMPDEST PUSH2 0x1019 PUSH32 0x62DC8991C0FF936E44CB9442A44ACB0B921182843123814A72F43FDCFCCA39B3 PUSH1 0x0 SHL PUSH2 0x118E JUMP JUMPDEST DUP2 PUSH1 0x2 PUSH1 0x0 DUP6 PUSH20 0xFFFFFFFFFFFFFFFFFFFFFFFFFFFFFFFFFFFFFFFF AND PUSH20 0xFFFFFFFFFFFFFFFFFFFFFFFFFFFFFFFFFFFFFFFF AND DUP2 MSTORE PUSH1 0x20 ADD SWAP1 DUP2 MSTORE PUSH1 0x20 ADD PUSH1 0x0 KECCAK256 PUSH1 0x0 DUP3 DUP3 SLOAD PUSH2 0x1068 SWAP2 SWAP1 PUSH2 0x15E1 JUMP JUMPDEST SWAP3 POP POP DUP2 SWAP1 SSTORE POP PUSH2 0x109B PUSH32 0xC2F9A9009B5EE3D98AC6103978FDC280A7DB3C2B11837F336A0FB9E0E465AFD0 PUSH1 0x0 SHL PUSH2 0x118E JUMP JUMPDEST PUSH2 0x10C7 PUSH32 0x3B6D40BAA2E18A0A40EFD435706CFBEAAD5670BBACF9B169D6AE3DEC3DB1BBE4 PUSH1 0x0 SHL PUSH2 0x118E JUMP JUMPDEST DUP3 PUSH20 0xFFFFFFFFFFFFFFFFFFFFFFFFFFFFFFFFFFFFFFFF AND CALLER PUSH20 0xFFFFFFFFFFFFFFFFFFFFFFFFFFFFFFFFFFFFFFFF AND PUSH32 0xDDF252AD1BE2C89B69C2B068FC378DAA952BA7F163C4A11628F55A4DF523B3EF DUP5 PUSH1 0x40 MLOAD PUSH2 0x1124 SWAP2 SWAP1 PUSH2 0x13AA JUMP JUMPDEST PUSH1 0x40 MLOAD DUP1 SWAP2 SUB SWAP1 LOG3 PUSH2 0x1158 PUSH32 0x34279B25258EBC9783A5F76985D3E3129E0EC37A835ED449206151BFF0F5703D PUSH1 0x0 SHL PUSH2 0x118E JUMP JUMPDEST PUSH2 0x1184 PUSH32 0x256B207263B47E55726D6506040278ADC252CD76064E1C69ABF77BF3F83F4716 PUSH1 0x0 SHL PUSH2 0x118E JUMP JUMPDEST PUSH1 0x1 SWAP1 POP SWAP3 SWAP2 POP POP JUMP JUMPDEST POP JUMP JUMPDEST PUSH1 0x0 DUP2 MLOAD SWAP1 POP SWAP2 SWAP1 POP JUMP JUMPDEST PUSH1 0x0 DUP3 DUP3 MSTORE PUSH1 0x20 DUP3 ADD SWAP1 POP SWAP3 SWAP2 POP POP JUMP JUMPDEST PUSH1 0x0 JUMPDEST DUP4 DUP2 LT ISZERO PUSH2 0x11CB JUMPI DUP1 DUP3 ADD MLOAD DUP2 DUP5 ADD MSTORE PUSH1 0x20 DUP2 ADD SWAP1 POP PUSH2 0x11B0 JUMP JUMPDEST DUP4 DUP2 GT ISZERO PUSH2 0x11DA JUMPI PUSH1 0x0 DUP5 DUP5 ADD MSTORE JUMPDEST POP POP POP POP JUMP JUMPDEST PUSH1 0x0 PUSH1 0x1F NOT PUSH1 0x1F DUP4 ADD AND SWAP1 POP SWAP2 SWAP1 POP JUMP JUMPDEST PUSH1 0x0 PUSH2 0x11FC DUP3 PUSH2 0x1191 JUMP JUMPDEST PUSH2 0x1206 DUP2 DUP6 PUSH2 0x119C JUMP JUMPDEST SWAP4 POP PUSH2 0x1216 DUP2 DUP6 PUSH1 0x20 DUP7 ADD PUSH2 0x11AD JUMP JUMPDEST PUSH2 0x121F DUP2 PUSH2 0x11E0 JUMP JUMPDEST DUP5 ADD SWAP2 POP POP SWAP3 SWAP2 POP POP JUMP JUMPDEST PUSH1 0x0 PUSH1 0x20 DUP3 ADD SWAP1 POP DUP2 DUP2 SUB PUSH1 0x0 DUP4 ADD MSTORE PUSH2 0x1244 DUP2 DUP5 PUSH2 0x11F1 JUMP JUMPDEST SWAP1 POP SWAP3 SWAP2 POP POP JUMP JUMPDEST PUSH1 0x0 DUP1 REVERT JUMPDEST PUSH1 0x0 PUSH20 0xFFFFFFFFFFFFFFFFFFFFFFFFFFFFFFFFFFFFFFFF DUP3 AND SWAP1 POP SWAP2 SWAP1 POP JUMP JUMPDEST PUSH1 0x0 PUSH2 0x127C DUP3 PUSH2 0x1251 JUMP JUMPDEST SWAP1 POP SWAP2 SWAP1 POP JUMP JUMPDEST PUSH2 0x128C DUP2 PUSH2 0x1271 JUMP JUMPDEST DUP2 EQ PUSH2 0x1297 JUMPI PUSH1 0x0 DUP1 REVERT JUMPDEST POP JUMP JUMPDEST PUSH1 0x0 DUP2 CALLDATALOAD SWAP1 POP PUSH2 0x12A9 DUP2 PUSH2 0x1283 JUMP JUMPDEST SWAP3 SWAP2 POP POP JUMP JUMPDEST PUSH1 0x0 DUP2 SWAP1 POP SWAP2 SWAP1 POP JUMP JUMPDEST PUSH2 0x12C2 DUP2 PUSH2 0x12AF JUMP JUMPDEST DUP2 EQ PUSH2 0x12CD JUMPI PUSH1 0x0 DUP1 REVERT JUMPDEST POP JUMP JUMPDEST PUSH1 0x0 DUP2 CALLDATALOAD SWAP1 POP PUSH2 0x12DF DUP2 PUSH2 0x12B9 JUMP JUMPDEST SWAP3 SWAP2 POP POP JUMP JUMPDEST PUSH1 0x0 DUP1 PUSH1 0x40 DUP4 DUP6 SUB SLT ISZERO PUSH2 0x12FC JUMPI PUSH2 0x12FB PUSH2 0x124C JUMP JUMPDEST JUMPDEST PUSH1 0x0 PUSH2 0x130A DUP6 DUP3 DUP7 ADD PUSH2 0x129A JUMP JUMPDEST SWAP3 POP POP PUSH1 0x20 PUSH2 0x131B DUP6 DUP3 DUP7 ADD PUSH2 0x12D0 JUMP JUMPDEST SWAP2 POP POP SWAP3 POP SWAP3 SWAP1 POP JUMP JUMPDEST PUSH1 0x0 DUP2 ISZERO ISZERO SWAP1 POP SWAP2 SWAP1 POP JUMP JUMPDEST PUSH2 0x133A DUP2 PUSH2 0x1325 JUMP JUMPDEST DUP3 MSTORE POP POP JUMP JUMPDEST PUSH1 0x0 PUSH1 0x20 DUP3 ADD SWAP1 POP PUSH2 0x1355 PUSH1 0x0 DUP4 ADD DUP5 PUSH2 0x1331 JUMP JUMPDEST SWAP3 SWAP2 POP POP JUMP JUMPDEST PUSH1 0x0 DUP1 PUSH1 0x40 DUP4 DUP6 SUB SLT ISZERO PUSH2 0x1372 JUMPI PUSH2 0x1371 PUSH2 0x124C JUMP JUMPDEST JUMPDEST PUSH1 0x0 PUSH2 0x1380 DUP6 DUP3 DUP7 ADD PUSH2 0x129A JUMP JUMPDEST SWAP3 POP POP PUSH1 0x20 PUSH2 0x1391 DUP6 DUP3 DUP7 ADD PUSH2 0x129A JUMP JUMPDEST SWAP2 POP POP SWAP3 POP SWAP3 SWAP1 POP JUMP JUMPDEST PUSH2 0x13A4 DUP2 PUSH2 0x12AF JUMP JUMPDEST DUP3 MSTORE POP POP JUMP JUMPDEST PUSH1 0x0 PUSH1 0x20 DUP3 ADD SWAP1 POP PUSH2 0x13BF PUSH1 0x0 DUP4 ADD DUP5 PUSH2 0x139B JUMP JUMPDEST SWAP3 SWAP2 POP POP JUMP JUMPDEST PUSH1 0x0 DUP1 PUSH1 0x0 PUSH1 0x60 DUP5 DUP7 SUB SLT ISZERO PUSH2 0x13DE JUMPI PUSH2 0x13DD PUSH2 0x124C JUMP JUMPDEST JUMPDEST PUSH1 0x0 PUSH2 0x13EC DUP7 DUP3 DUP8 ADD PUSH2 0x129A JUMP JUMPDEST SWAP4 POP POP PUSH1 0x20 PUSH2 0x13FD DUP7 DUP3 DUP8 ADD PUSH2 0x129A JUMP JUMPDEST SWAP3 POP POP PUSH1 0x40 PUSH2 0x140E DUP7 DUP3 DUP8 ADD PUSH2 0x12D0 JUMP JUMPDEST SWAP2 POP POP SWAP3 POP SWAP3 POP SWAP3 JUMP JUMPDEST PUSH1 0x0 PUSH1 0x20 DUP3 DUP5 SUB SLT ISZERO PUSH2 0x142E JUMPI PUSH2 0x142D PUSH2 0x124C JUMP JUMPDEST JUMPDEST PUSH1 0x0 PUSH2 0x143C DUP5 DUP3 DUP6 ADD PUSH2 0x129A JUMP JUMPDEST SWAP2 POP POP SWAP3 SWAP2 POP POP JUMP JUMPDEST PUSH1 0x0 PUSH1 0xFF DUP3 AND SWAP1 POP SWAP2 SWAP1 POP JUMP JUMPDEST PUSH2 0x145B DUP2 PUSH2 0x1445 JUMP JUMPDEST DUP3 MSTORE POP POP JUMP JUMPDEST PUSH1 0x0 PUSH1 0x20 DUP3 ADD SWAP1 POP PUSH2 0x1476 PUSH1 0x0 DUP4 ADD DUP5 PUSH2 0x1452 JUMP JUMPDEST SWAP3 SWAP2 POP POP JUMP JUMPDEST PUSH2 0x1485 DUP2 PUSH2 0x1271 JUMP JUMPDEST DUP3 MSTORE POP POP JUMP JUMPDEST PUSH1 0x0 PUSH1 0x20 DUP3 ADD SWAP1 POP PUSH2 0x14A0 PUSH1 0x0 DUP4 ADD DUP5 PUSH2 0x147C JUMP JUMPDEST SWAP3 SWAP2 POP POP JUMP JUMPDEST PUSH32 0x496E73756666696369656E742066756E64730000000000000000000000000000 PUSH1 0x0 DUP3 ADD MSTORE POP JUMP JUMPDEST PUSH1 0x0 PUSH2 0x14DC PUSH1 0x12 DUP4 PUSH2 0x119C JUMP JUMPDEST SWAP2 POP PUSH2 0x14E7 DUP3 PUSH2 0x14A6 JUMP JUMPDEST PUSH1 0x20 DUP3 ADD SWAP1 POP SWAP2 SWAP1 POP JUMP JUMPDEST PUSH1 0x0 PUSH1 0x20 DUP3 ADD SWAP1 POP DUP2 DUP2 SUB PUSH1 0x0 DUP4 ADD MSTORE PUSH2 0x150B DUP2 PUSH2 0x14CF JUMP JUMPDEST SWAP1 POP SWAP2 SWAP1 POP JUMP JUMPDEST PUSH32 0x496E73756666696369656E7420616C6C6F77616E636500000000000000000000 PUSH1 0x0 DUP3 ADD MSTORE POP JUMP JUMPDEST PUSH1 0x0 PUSH2 0x1548 PUSH1 0x16 DUP4 PUSH2 0x119C JUMP JUMPDEST SWAP2 POP PUSH2 0x1553 DUP3 PUSH2 0x1512 JUMP JUMPDEST PUSH1 0x20 DUP3 ADD SWAP1 POP SWAP2 SWAP1 POP JUMP JUMPDEST PUSH1 0x0 PUSH1 0x20 DUP3 ADD SWAP1 POP DUP2 DUP2 SUB PUSH1 0x0 DUP4 ADD MSTORE PUSH2 0x1577 DUP2 PUSH2 0x153B JUMP JUMPDEST SWAP1 POP SWAP2 SWAP1 POP JUMP JUMPDEST PUSH32 0x4E487B7100000000000000000000000000000000000000000000000000000000 PUSH1 0x0 MSTORE PUSH1 0x11 PUSH1 0x4 MSTORE PUSH1 0x24 PUSH1 0x0 REVERT JUMPDEST PUSH1 0x0 PUSH2 0x15B8 DUP3 PUSH2 0x12AF JUMP JUMPDEST SWAP2 POP PUSH2 0x15C3 DUP4 PUSH2 0x12AF JUMP JUMPDEST SWAP3 POP DUP3 DUP3 LT ISZERO PUSH2 0x15D6 JUMPI PUSH2 0x15D5 PUSH2 0x157E JUMP JUMPDEST JUMPDEST DUP3 DUP3 SUB SWAP1 POP SWAP3 SWAP2 POP POP JUMP JUMPDEST PUSH1 0x0 PUSH2 0x15EC DUP3 PUSH2 0x12AF JUMP JUMPDEST SWAP2 POP PUSH2 0x15F7 DUP4 PUSH2 0x12AF JUMP JUMPDEST SWAP3 POP DUP3 PUSH32 0xFFFFFFFFFFFFFFFFFFFFFFFFFFFFFFFFFFFFFFFFFFFFFFFFFFFFFFFFFFFFFFFF SUB DUP3 GT ISZERO PUSH2 0x162C JUMPI PUSH2 0x162B PUSH2 0x157E JUMP JUMPDEST JUMPDEST DUP3 DUP3 ADD SWAP1 POP SWAP3 SWAP2 POP POP JUMP INVALID LOG2 PUSH5 0x6970667358 0x22 SLT KECCAK256 0xB6 0x2F TIMESTAMP 0x1E GAS 0xED 0xD5 ADD 0xDB GT SWAP11 PUSH13 0x20E6393AC4E604E35BEF6B4D5A 0x2A PUSH30 0x11F08E8A2164736F6C634300080900330000000000000000000000000000 "
        },
        "methodIdentifiers": {
          "allowed(address,address)": "5c658165",
          "approve(address,uint256)": "095ea7b3",
          "balanceOf(address)": "70a08231",
          "balances(address)": "27e235e3",
          "decimals()": "313ce567",
          "getAllowance(address,address)": "0af4187d",
          "name()": "06fdde03",
          "owner()": "8da5cb5b",
          "symbol()": "95d89b41",
          "totalSupply()": "18160ddd",
          "transfer(address,uint256)": "a9059cbb",
          "transferFrom(address,address,uint256)": "23b872dd"
        }
      }
    }
  }
}