{
  "_format": "hh-sol-artifact-1",
  "contractName": "NathanCoin",
  "sourceName": "contracts/nathancoin.sol",
  "abi": [
    {
      "inputs": [],
      "stateMutability": "nonpayable",
      "type": "constructor"
    },
    {
      "anonymous": false,
      "inputs": [
        {
          "indexed": true,
          "internalType": "address",
          "name": "owner",
          "type": "address"
        },
        {
          "indexed": true,
          "internalType": "address",
          "name": "spender",
          "type": "address"
        },
        {
          "indexed": false,
          "internalType": "uint256",
          "name": "value",
          "type": "uint256"
        }
      ],
      "name": "Approval",
      "type": "event"
    },
    {
      "anonymous": false,
      "inputs": [
        {
          "indexed": true,
          "internalType": "address",
          "name": "from",
          "type": "address"
        },
        {
          "indexed": true,
          "internalType": "address",
          "name": "to",
          "type": "address"
        },
        {
          "indexed": false,
          "internalType": "uint256",
          "name": "value",
          "type": "uint256"
        }
      ],
      "name": "Transfer",
      "type": "event"
    },
    {
      "inputs": [
        {
          "internalType": "address",
          "name": "",
          "type": "address"
        },
        {
          "internalType": "address",
          "name": "",
          "type": "address"
        }
      ],
      "name": "allowed",
      "outputs": [
        {
          "internalType": "uint256",
          "name": "",
          "type": "uint256"
        }
      ],
      "stateMutability": "view",
      "type": "function"
    },
    {
      "inputs": [
        {
          "internalType": "address",
          "name": "spender",
          "type": "address"
        },
        {
          "internalType": "uint256",
          "name": "value",
          "type": "uint256"
        }
      ],
      "name": "approve",
      "outputs": [
        {
          "internalType": "bool",
          "name": "",
          "type": "bool"
        }
      ],
      "stateMutability": "nonpayable",
      "type": "function"
    },
    {
      "inputs": [
        {
          "internalType": "address",
          "name": "account",
          "type": "address"
        }
      ],
      "name": "balanceOf",
      "outputs": [
        {
          "internalType": "uint256",
          "name": "",
          "type": "uint256"
        }
      ],
      "stateMutability": "view",
      "type": "function"
    },
    {
      "inputs": [
        {
          "internalType": "address",
          "name": "",
          "type": "address"
        }
      ],
      "name": "balances",
      "outputs": [
        {
          "internalType": "uint256",
          "name": "",
          "type": "uint256"
        }
      ],
      "stateMutability": "view",
      "type": "function"
    },
    {
      "inputs": [],
      "name": "decimals",
      "outputs": [
        {
          "internalType": "uint8",
          "name": "",
          "type": "uint8"
        }
      ],
      "stateMutability": "view",
      "type": "function"
    },
    {
      "inputs": [
        {
          "internalType": "address",
          "name": "owner_",
          "type": "address"
        },
        {
          "internalType": "address",
          "name": "spender",
          "type": "address"
        }
      ],
      "name": "getAllowance",
      "outputs": [
        {
          "internalType": "uint256",
          "name": "",
          "type": "uint256"
        }
      ],
      "stateMutability": "view",
      "type": "function"
    },
    {
      "inputs": [],
      "name": "name",
      "outputs": [
        {
          "internalType": "string",
          "name": "",
          "type": "string"
        }
      ],
      "stateMutability": "view",
      "type": "function"
    },
    {
      "inputs": [],
      "name": "owner",
      "outputs": [
        {
          "internalType": "address",
          "name": "",
          "type": "address"
        }
      ],
      "stateMutability": "view",
      "type": "function"
    },
    {
      "inputs": [],
      "name": "symbol",
      "outputs": [
        {
          "internalType": "string",
          "name": "",
          "type": "string"
        }
      ],
      "stateMutability": "view",
      "type": "function"
    },
    {
      "inputs": [],
      "name": "totalSupply",
      "outputs": [
        {
          "internalType": "uint256",
          "name": "",
          "type": "uint256"
        }
      ],
      "stateMutability": "view",
      "type": "function"
    },
    {
      "inputs": [
        {
          "internalType": "address",
          "name": "to",
          "type": "address"
        },
        {
          "internalType": "uint256",
          "name": "value",
          "type": "uint256"
        }
      ],
      "name": "transfer",
      "outputs": [
        {
          "internalType": "bool",
          "name": "",
          "type": "bool"
        }
      ],
      "stateMutability": "nonpayable",
      "type": "function"
    },
    {
      "inputs": [
        {
          "internalType": "address",
          "name": "from",
          "type": "address"
        },
        {
          "internalType": "address",
          "name": "to",
          "type": "address"
        },
        {
          "internalType": "uint256",
          "name": "value",
          "type": "uint256"
        }
      ],
      "name": "transferFrom",
      "outputs": [
        {
          "internalType": "bool",
          "name": "",
          "type": "bool"
        }
      ],
      "stateMutability": "nonpayable",
      "type": "function"
    }
  ],
  "bytecode": "0x6080604052620f42406000553480156200001857600080fd5b506200004d7f64a12e5c665541ebc950fb22015ad9a5c4decab6db22b9be2d30343703d1ba3860001b620001aa60201b60201c565b620000817f719bbf188dfed047182cbfa0a71f18869bf5a7caa19c5bc5f94309d1f51f778d60001b620001aa60201b60201c565b620000b57f485025135c6115d489f54e5f6f21dec4b1e6a055d506f4a6a075203e89332bc460001b620001aa60201b60201c565b600054600260003373ffffffffffffffffffffffffffffffffffffffff1673ffffffffffffffffffffffffffffffffffffffff168152602001908152602001600020819055506200012f7f021ef55118ed180b2bde541cfad9e8bb9784b548eb3915cbeca05b6c20ab93af60001b620001aa60201b60201c565b620001637f705c8ac9273e3fbb8dbb253b64d65c62b4a39dbbd36c51c20a0057802f92fde660001b620001aa60201b60201c565b33600160006101000a81548173ffffffffffffffffffffffffffffffffffffffff021916908373ffffffffffffffffffffffffffffffffffffffff160217905550620001ad565b50565b61166d80620001bd6000396000f3fe608060405234801561001057600080fd5b50600436106100b45760003560e01c8063313ce56711610071578063313ce567146101b55780635c658165146101d357806370a08231146102035780638da5cb5b1461023357806395d89b4114610251578063a9059cbb1461026f576100b4565b806306fdde03146100b9578063095ea7b3146100d75780630af4187d1461010757806318160ddd1461013757806323b872dd1461015557806327e235e314610185575b600080fd5b6100c161029f565b6040516100ce919061122a565b60405180910390f35b6100f160048036038101906100ec91906112e5565b6102d8565b6040516100fe9190611340565b60405180910390f35b610121600480360381019061011c919061135b565b6104fe565b60405161012e91906113aa565b60405180910390f35b61013f610609565b60405161014c91906113aa565b60405180910390f35b61016f600480360381019061016a91906113c5565b61060f565b60405161017c9190611340565b60405180910390f35b61019f600480360381019061019a9190611418565b610c45565b6040516101ac91906113aa565b60405180910390f35b6101bd610c5d565b6040516101ca9190611461565b60405180910390f35b6101ed60048036038101906101e8919061135b565b610c62565b6040516101fa91906113aa565b60405180910390f35b61021d60048036038101906102189190611418565b610c87565b60405161022a91906113aa565b60405180910390f35b61023b610d54565b604051610248919061148b565b60405180910390f35b610259610d7a565b604051610266919061122a565b60405180910390f35b610289600480360381019061028491906112e5565b610db3565b6040516102969190611340565b60405180910390f35b6040518060400160405280600b81526020017f4e617468616e20436f696e00000000000000000000000000000000000000000081525081565b60006103067fd0b30c46c39bae1630b17d8d441e41095ebf87ffa0c1c2e01ffea12411cff3f560001b61118e565b6103327f10359302cb909bf91acd3bcdb57fd945deb2dd6523d89627879cbda7ae66274f60001b61118e565b61035e7f168bce3bbddb24bf11b5f76dbeadddaa2a2f04c0d6db77529a4eccd493304aea60001b61118e565b81600360003373ffffffffffffffffffffffffffffffffffffffff1673ffffffffffffffffffffffffffffffffffffffff16815260200190815260200160002060008573ffffffffffffffffffffffffffffffffffffffff1673ffffffffffffffffffffffffffffffffffffffff1681526020019081526020016000208190555061040b7f0fa7326ffc43cba0f9c3fad72f5d6c0925c9ac506053938ba1c331cadd0d0c1a60001b61118e565b6104377f3f28cf3db5bf6e0911d0d74f95901420e35abcf8c4915b9f951061a5e24af7bd60001b61118e565b8273ffffffffffffffffffffffffffffffffffffffff163373ffffffffffffffffffffffffffffffffffffffff167f8c5be1e5ebec7d5bd14f71427d1e84f3dd0314c0f7b2291e5b200ac8c7c3b9258460405161049491906113aa565b60405180910390a36104c87fd563247322f17f1aa225932297a487179e88d05e1e0dfa59fbf24f65101a4eb060001b61118e565b6104f47f2bd56537fec80aa6c223b196abc3bd1cca6e54a7f3e0a29efc1afc1685fa58a160001b61118e565b6001905092915050565b600061052c7faa801acf766ad6adc93d38db62453751652208ea3d099ac5ce8c9b8b7e6ee83360001b61118e565b6105587f7253a052a334ef0f8a8d7f83ebb827809eedcab4b208d3d5458aa40220e6e29260001b61118e565b6105847fdc95f765c6d1ef95d36965450af5be712a4e11ae45d8ca7638abc68c02d6311a60001b61118e565b600360008473ffffffffffffffffffffffffffffffffffffffff1673ffffffffffffffffffffffffffffffffffffffff16815260200190815260200160002060008373ffffffffffffffffffffffffffffffffffffffff1673ffffffffffffffffffffffffffffffffffffffff16815260200190815260200160002054905092915050565b60005481565b600061063d7fa364d3ab7ae4d67f4fa2e24eec727f2a5de50644108a85cc1ca6c2568b51e92660001b61118e565b6106697f0126d266d51de596a96c5e1824bd2b444ee9897a88aae5410392fbbed4e811b060001b61118e565b6106957f1e5c83b63c82e9535a03534ace6b0f0ceb1d11b443f5ca8786ecfd1a9ca9694d60001b61118e565b6106c17f43206e60463910e048ec49cd015d4d5c11d8bb1d6caaaaf2b5e1062b3cb8435360001b61118e565b600260008573ffffffffffffffffffffffffffffffffffffffff1673ffffffffffffffffffffffffffffffffffffffff16815260200190815260200160002054821115610743576040517f08c379a000000000000000000000000000000000000000000000000000000000815260040161073a906114f2565b60405180910390fd5b61076f7f999f9df78a1a74759ad384eea683d735bb5aba4be6317708194e21884fb83b6260001b61118e565b61079b7ff1b4ea0e65a95124426bf2bcd3aee349130a17ca3e71a7ce49d23b34fe078bbe60001b61118e565b6107c77f1e40947827d29ad7f9719e3520d568d4b0b06d81e13e335bda69deb2bd6587c560001b61118e565b6107f37f7d76fbd7f00ac2c861cee6d13a453750f75370c7165653829ab6e6cf3429074160001b61118e565b600360008573ffffffffffffffffffffffffffffffffffffffff1673ffffffffffffffffffffffffffffffffffffffff16815260200190815260200160002060003373ffffffffffffffffffffffffffffffffffffffff1673ffffffffffffffffffffffffffffffffffffffff168152602001908152602001600020548211156108b2576040517f08c379a00000000000000000000000000000000000000000000000000000000081526004016108a99061155e565b60405180910390fd5b6108de7f36c30effef9eb08b74bafbc8aa181a3de365d70978944dd4ab5c09f94bc6ce3d60001b61118e565b61090a7f1683f80366780b0bd5774dd5624c659ec30088d30fcf78922ab0a46231fa12e660001b61118e565b6109367fd872d1b829407bef35412e1b48cd9d50b8d66e965101f09cc0dc4a903ebd112460001b61118e565b81600260008673ffffffffffffffffffffffffffffffffffffffff1673ffffffffffffffffffffffffffffffffffffffff168152602001908152602001600020600082825461098591906115ad565b925050819055506109b87f80cdad0ebaa2da362c4ed0657aef8780152b066e8407236b90b6c68433fe61d960001b61118e565b6109e47fe381e134eb773e9c73828038c0d48cb144c540e61a51bf0bc52420b220583fa160001b61118e565b81600360008673ffffffffffffffffffffffffffffffffffffffff1673ffffffffffffffffffffffffffffffffffffffff16815260200190815260200160002060003373ffffffffffffffffffffffffffffffffffffffff1673ffffffffffffffffffffffffffffffffffffffff1681526020019081526020016000206000828254610a7091906115ad565b92505081905550610aa37f3a41484d2835c60fdde7c0a56324c9def3afdb7081610bec348537d1dd49b89960001b61118e565b610acf7fe20422eb260d54303906542808c0d4a2b043693011bc191c2e52b098994b028960001b61118e565b81600260008573ffffffffffffffffffffffffffffffffffffffff1673ffffffffffffffffffffffffffffffffffffffff1681526020019081526020016000206000828254610b1e91906115e1565b92505081905550610b517fcb3ac5a78138e036f96bc325f4fbe5f5d176a85a563f26189c128a67dd9b616b60001b61118e565b610b7d7f44d99a6a322dcaae54f46300026fd44e58e797181f03c78a569780b82ab2e9a960001b61118e565b8273ffffffffffffffffffffffffffffffffffffffff168473ffffffffffffffffffffffffffffffffffffffff167fddf252ad1be2c89b69c2b068fc378daa952ba7f163c4a11628f55a4df523b3ef84604051610bda91906113aa565b60405180910390a3610c0e7f0c2b7f088465e82845cb559bfe9b076fdea17b3916048526e8850e257bf68e1760001b61118e565b610c3a7fce6a642879471c88413cffb6170916080b9dab87237eca0a63def7221534127660001b61118e565b600190509392505050565b60026020528060005260406000206000915090505481565b601281565b6003602052816000526040600020602052806000526040600020600091509150505481565b6000610cb57f1167df1adc7a5f598ada074e405a18dac056b62fb36ce3e44cf667c721aeb8d060001b61118e565b610ce17f72122bd72ea0e707ea2f1a8e59490bf46309b67d53f1f80ff441c6176b846f1460001b61118e565b610d0d7f103b5f411d3ce921d32191e6cbc317b06b7957ea4a8f643b5af9401249bbb21560001b61118e565b600260008373ffffffffffffffffffffffffffffffffffffffff1673ffffffffffffffffffffffffffffffffffffffff168152602001908152602001600020549050919050565b600160009054906101000a900473ffffffffffffffffffffffffffffffffffffffff1681565b6040518060400160405280600481526020017f4e4154430000000000000000000000000000000000000000000000000000000081525081565b6000610de17f55a579f23b4c04898078d6d4fb5fc6e9baa9e1b57479b5b8c9328c47a1de01d260001b61118e565b610e0d7ff6b9c96b1b433c919d7aaa127c46d781159448c89c75658275f07aee451264da60001b61118e565b610e397feb6224220d6a1f6f68bb7ef09bffaa5f2e5f0c922e9103ad00031e518a2fd80260001b61118e565b610e657f3e91ca06756faf45c74e7969b9ac26a02df67fd03516c75131724460ef3d111a60001b61118e565b600260003373ffffffffffffffffffffffffffffffffffffffff1673ffffffffffffffffffffffffffffffffffffffff16815260200190815260200160002054821115610ee7576040517f08c379a0000000000000000000000000000000000000000000000000000000008152600401610ede906114f2565b60405180910390fd5b610f137f60ead3bc38531c36ea2a5ae9e305a5c99f1af341081ebd8b105f6d03cef2cbe860001b61118e565b610f3f7fdcb90c4b7fa3c1755388850d9a8bcb3e2dd01b72c75e2b4d74e9ea067f47dc6360001b61118e565b610f6b7f49f9aff709effc54d3f3d542a2be8660d6ea9e30cf1bec6e0a8513ccb2dd641860001b61118e565b81600260003373ffffffffffffffffffffffffffffffffffffffff1673ffffffffffffffffffffffffffffffffffffffff1681526020019081526020016000206000828254610fba91906115ad565b92505081905550610fed7f1a27b14f8b81bac9b0a72704044717c246f778cc7b34392715a8e78f4cc5d33760001b61118e565b6110197f62dc8991c0ff936e44cb9442a44acb0b921182843123814a72f43fdcfcca39b360001b61118e565b81600260008573ffffffffffffffffffffffffffffffffffffffff1673ffffffffffffffffffffffffffffffffffffffff168152602001908152602001600020600082825461106891906115e1565b9250508190555061109b7fc2f9a9009b5ee3d98ac6103978fdc280a7db3c2b11837f336a0fb9e0e465afd060001b61118e565b6110c77f3b6d40baa2e18a0a40efd435706cfbeaad5670bbacf9b169d6ae3dec3db1bbe460001b61118e565b8273ffffffffffffffffffffffffffffffffffffffff163373ffffffffffffffffffffffffffffffffffffffff167fddf252ad1be2c89b69c2b068fc378daa952ba7f163c4a11628f55a4df523b3ef8460405161112491906113aa565b60405180910390a36111587f34279b25258ebc9783a5f76985d3e3129e0ec37a835ed449206151bff0f5703d60001b61118e565b6111847f256b207263b47e55726d6506040278adc252cd76064e1c69abf77bf3f83f471660001b61118e565b6001905092915050565b50565b600081519050919050565b600082825260208201905092915050565b60005b838110156111cb5780820151818401526020810190506111b0565b838111156111da576000848401525b50505050565b6000601f19601f8301169050919050565b60006111fc82611191565b611206818561119c565b93506112168185602086016111ad565b61121f816111e0565b840191505092915050565b6000602082019050818103600083015261124481846111f1565b905092915050565b600080fd5b600073ffffffffffffffffffffffffffffffffffffffff82169050919050565b600061127c82611251565b9050919050565b61128c81611271565b811461129757600080fd5b50565b6000813590506112a981611283565b92915050565b6000819050919050565b6112c2816112af565b81146112cd57600080fd5b50565b6000813590506112df816112b9565b92915050565b600080604083850312156112fc576112fb61124c565b5b600061130a8582860161129a565b925050602061131b858286016112d0565b9150509250929050565b60008115159050919050565b61133a81611325565b82525050565b60006020820190506113556000830184611331565b92915050565b600080604083850312156113725761137161124c565b5b60006113808582860161129a565b92505060206113918582860161129a565b9150509250929050565b6113a4816112af565b82525050565b60006020820190506113bf600083018461139b565b92915050565b6000806000606084860312156113de576113dd61124c565b5b60006113ec8682870161129a565b93505060206113fd8682870161129a565b925050604061140e868287016112d0565b9150509250925092565b60006020828403121561142e5761142d61124c565b5b600061143c8482850161129a565b91505092915050565b600060ff82169050919050565b61145b81611445565b82525050565b60006020820190506114766000830184611452565b92915050565b61148581611271565b82525050565b60006020820190506114a0600083018461147c565b92915050565b7f496e73756666696369656e742066756e64730000000000000000000000000000600082015250565b60006114dc60128361119c565b91506114e7826114a6565b602082019050919050565b6000602082019050818103600083015261150b816114cf565b9050919050565b7f496e73756666696369656e7420616c6c6f77616e636500000000000000000000600082015250565b600061154860168361119c565b915061155382611512565b602082019050919050565b600060208201905081810360008301526115778161153b565b9050919050565b7f4e487b7100000000000000000000000000000000000000000000000000000000600052601160045260246000fd5b60006115b8826112af565b91506115c3836112af565b9250828210156115d6576115d561157e565b5b828203905092915050565b60006115ec826112af565b91506115f7836112af565b9250827fffffffffffffffffffffffffffffffffffffffffffffffffffffffffffffffff0382111561162c5761162b61157e565b5b82820190509291505056fea2646970667358221220b62f421e5aedd501db119a6c20e6393ac4e604e35bef6b4d5a2a7d11f08e8a2164736f6c63430008090033",
  "linkReferences": {},
  "deployedLinkReferences": {}
}